:020000040800F2
:1000000028090020BD040008C5060008C70600082E
:10001000CB060008CF060008D30600080000000049
:10002000000000000000000000000000D7060008EB
:10003000D906000800000000DB060008DD06000805
:10004000D7040008D7040008D7040008D704000824
:10005000D7040008D7040008D7040008D704000814
:10006000D7040008D7040008D7040008D704000804
:10007000D7040008D7040008D7040008D7040008F4
:10008000D7040008D7040008D7040008D7040008E4
:10009000D7040008D7040008D7040008D7040008D4
:1000A000D7040008D7040008D7040008D7040008C4
:1000B000D7040008D7040008DB400008D704000874
:1000C000D7040008D7040008D7040008D7040008A4
:1000D000D704000803280008D7040008D704000844
:1000E000D7040008D7040008D7040008D704000884
:1000F000D7040008D7040008D7040008D704000874
:10010000D7040008D7040008D7040008D704000863
:10011000D7040008D7040008D7040008D704000853
:10012000D7040008D7040008D7040008D704000843
:1001300000F002F800F041F80AA090E8000C8244B8
:100140008344AAF10107DA4501D100F036F8AFF295
:10015000090EBAE80F0013F0010F18BFFB1A43F0A5
:1001600001031847AC620000CC620000103A24BFC3
:1001700078C878C1FAD8520724BF30C830C144BF0C
:1001800004680C607047000000230024002500264E
:10019000103A28BF78C1FBD8520728BF30C148BFEA
:1001A0000B607047732904F00883002070471FB567
:1001B00005F07DFF1FBD10B510BD04F03BFB1146DF
:1001C000FFF7F5FF00F008F804F059FB03B4FFF760
:1001D000F2FF03BC02F0BCFA1CB5002401F058FF8A
:1001E0004FF4FA6001F08BFF4FF4FA6001F087FFE3
:1001F00002F04EFB01F0AEFF04F012F94FF416507E
:1002000002F0B3FA02F07EFA47214FF6FF7003F0D6
:10021000F1FE00BF11E09E48006883B29C48006870
:1002200082B29B48006881B29948006880B202F0AF
:1002300073FA012001F063FF641C42F6E06084421F
:10024000E9DB02F03EFD02F06AFD02F001F89148A0
:100250000368914802688E4801689048006802F07F
:1002600066F936E002F08BFD8D48836842680546EA
:10027000CDE900232B688B4DAA686968286802F0D5
:1002800028FE8448036884480268814801688348DE
:10029000006802F0ECF802F017F87D48006840F2C0
:1002A000744188420ED98048006883B27F48006854
:1002B00082B27F48006881B27E48006880B202F056
:1002C0002BFA06E040F24C431A461946184602F053
:1002D00023FAC7E7F0B58FB0002600240127AA2231
:1002E0002146641C02A842542146641C4254022246
:1002F0002146641C425400222146641C4254684931
:10030000086805F0A5FD00B201909DF80520214682
:10031000641C02A842549DF804202146641C4254E7
:100320005F49486805F094FD00B201909DF80520F2
:100330002146641C02A842549DF804202046611CFA
:10034000CCB202A90A545649886805F081FD00B272
:1003500001909DF805202046611CCCB202A90A54E8
:100360009DF804202046611CCCB202A90A544D49D4
:10037000086805F06DFD00B201909DF8052020464B
:10038000611CCCB202A90A549DF804202046611CCD
:10039000CCB202A90A544349486805F059FD00B29D
:1003A00001909DF805202046611CCCB202A90A5498
:1003B0009DF804202046611CCCB202A90A54394998
:1003C000886805F045FD00B201909DF805202146A2
:1003D000601CC4B202A842549DF804202046611C4F
:1003E000CCB202A90A542F49086805F031FD00B2C9
:1003F00001909DF805202046611CCCB202A90A5448
:100400009DF804202046611CCCB202A90A5425495B
:10041000486805F01DFD00B201909DF805202046BA
:10042000611CCCB202A90A549DF804202046611C2C
:10043000CCB202A90A541B49886805F009FD00B234
:1004400001909DF805202046611CCCB202A90A54F7
:100450009DF804202046611CCCB202A90A54201F3A
:10046000C0B28DF80B00002505E002A8405D3044C5
:10047000C6B2681CC5B2A542F7DB2046611CCCB2EF
:1004800002A90E540CA004F00DF90FB0F0BD00004D
:10049000F800002000010020FC000020F4000020F3
:1004A000880200207C020020600000205C00002008
:1004B00058000020540000202573000009488047A0
:1004C00009480047FEE7FEE7FEE7FEE7FEE7FEE736
:1004D000FEE7FEE7FEE7FEE704480549054A064B4E
:1004E00070470000C50500083101000828030020FE
:1004F00028090020280500202805002000210020D0
:10050000674A126842F48032654B1A6000BF644A41
:10051000126802F40030491C10B9B1F5A06FF6D191
:100520005F4A126812F4003F01D0012000E0002071
:10053000012842D15B4A126842F01002594B1A60FE
:100540001A46126822F003021A601A46126842F034
:1005500002021A60524A5268514B5A601A46526857
:100560005A601A46526842F480625A601A465268CB
:1005700022F47C125A601A46526842F4E8125A6019
:100580001A46126842F080721A6000BF444A12682C
:1005900012F0007FFAD0424A526822F00302404B28
:1005A0005A601A46526842F002025A6000BF3C4A42
:1005B000526802F00C02082AF9D1704710B5FFF713
:1005C0009DFF10BD10B53648006840F00100344969
:1005D0000860084640683449084031494860084688
:1005E0000068324908402E4908600846006820F437
:1005F000802008600846406820F4FE0048604FF400
:100600001F008860FFF7DAFF4FF00060284908609C
:1006100010BD10B5002100200022214B5B6803F0C3
:100620000C0121B1042906D0082928D107E0214B6B
:10063000214C236027E01F4B1F4C236023E0184B05
:100640005B6803F47010164B5B6803F4803202237E
:1006500003EB904022B9194B4343174C23600DE044
:100660000F4B5B6813F4003F04D0144B4343124C10
:10067000236003E00F4B43430F4C236003E00D4B1B
:100680000D4C236000BF00BF054B5B68C3F3031331
:100690000B4CE15C084B1B68CB40074C236010BD42
:1006A00000100240002002400000FFF8FFFFF6FEAD
:1006B00008ED00E000127A000000002000093D0073
:1006C00004000020704700BFFEE700BFFEE700BF48
:1006D000FEE700BFFEE770477047704770470000B5
:1006E00036490143364A1160704770B50021002336
:1006F0000F22C4784CB3324C246804F4E064C4F58F
:10070000E0644FEA1421C1F1040322FA01F24478B3
:1007100004FA03F1847804EA020444EA01014FEA8E
:100720000111284C0678A155047804F01F054FF0FC
:10073000010404FA05F405784FEA65154FF0E02648
:1007400006EB8505C5F8004109E0047804F01F05B3
:100750000124AC401C4D0678761145F8264070BD4A
:100760001A4A0A4002431A4B1A60704741B1194AAB
:10077000126842EA00024FF0E023C3F8102D07E0B0
:10078000144A126822EA00024FF0E023C3F8102D49
:100790007047042808D14FF0E021096941F00401B5
:1007A0004FF0E022116107E04FF0E021096921F0EC
:1007B00004014FF0E0221161704700000000FA05CB
:1007C0000CED00E000E400E080E100E080FFFF1FAE
:1007D00008ED00E010ED00E010B50446CA48844280
:1007E00008D10121042000F024FB0021042000F0A6
:1007F00020FB46E0C548844208D10121082000F0D2
:1008000018FB0021082000F014FB3AE0C0488442A5
:1008100008D10121102000F00CFB0021102000F075
:1008200008FB2EE0BB48844208D10121202000F0C3
:1008300000FB0021202000F0FCFA22E0B6488442B0
:1008400008D10121402000F0F4FA0021402000F0FE
:10085000F0FA16E0B148844208D10121802000F06E
:10086000E8FA0021802000F0E4FA0AE0AC48844273
:1008700007D10121801500F0DCFA0021A01500F05D
:10088000D8FA10BD10B50121084600F0D2FA0021B7
:10089000012000F0CEFA10BD2DE9F04102460025FE
:1008A0000026002000230024002791F803C00CF04C
:1008B0000F0591F803C01CF0100F03D091F802C08F
:1008C0004CEA0505B1F800C01CF0FF0F31D01468E8
:1008D00000202BE04FF0010C0CFA00F3B1F800C03F
:1008E0000CEA03069E4220D183004FF00F0C0CFA55
:1008F00003F7BC4305FA03FC4CEA040491F803C077
:10090000BCF1280F06D14FF0010C0CFA00FCC2F824
:1009100014C00AE091F803C0BCF1480F05D14FF0B4
:10092000010C0CFA00FCC2F810C0401C0828D1D3FE
:100930001460B1F800C0BCF1FF0F34DD5468002032
:100940002EE000F1080C4FF0010808FA0CF3B1F8A2
:1009500000C00CEA03069E4221D183004FF00F0C29
:100960000CFA03F7BC4305FA03FC4CEA040491F8C3
:1009700003C0BCF1280F05D100F1080C08FA0CF8EF
:10098000C2F8148091F803C0BCF1480F07D100F100
:10099000080C4FF0010808FA0CF8C2F81080401C4F
:1009A0000828CED35460BDE8F0814FF6FF71018076
:1009B000022181700421C1707047024600209368B3
:1009C0000B4201D0012000E00020704701468868FA
:1009D00080B2704702460020D3680B4201D001204C
:1009E00000E0002070470146C86880B2704701618E
:1009F0007047416170470AB1016100E04161704791
:100A0000C16070474FF480320A4382618161826124
:100A100082698269704702460020424B18684FF68F
:100A20008073184040EA021008433E4B186070473C
:100A30003D49C8617047F0B50A46002300240021F3
:100A4000002500F00046B6F1004F02D1354EF169A5
:100A500001E0344E7168C0F3034583B200F44016E0
:100A6000B6F5401F08D121F070612E4E766826F051
:100A700070662C4F7E6012E000F48016B6F5801F81
:100A800006D1032606FA05F4A14341F0706106E0A1
:100A9000460D360103FA06F6B14341F0706122B10A
:100AA000460D360103FA06F6314300F00046B6F172
:100AB000004F02D11B4EF16101E01A4E7160F0BD92
:100AC00030B500228B071C0F0F2303FA04F2154BDD
:100AD00008338C1053F824309343124C08348D1093
:100AE00044F8253023468C1053F824308C07240F0B
:100AF00000FA04F423430B4C08348D1044F82530DD
:100B000030BD0A490860704700080140000C0140F0
:100B1000001001400014014000180140001C014079
:100B2000002001400000014000002042DC00204283
:100B3000DB48006840F00100D94908600846406879
:100B4000D8490840D649486008460068D649084058
:100B5000D34908600846006820F4802008600846F1
:100B6000406820F4FE0048604FF41F008860704722
:100B7000CB49096821F48031C94A116011460968DE
:100B800021F480211160B0F5803F03D0B0F5802FB3
:100B90000ED106E0C249096841F48031C04A1160B3
:100BA00007E0BF49096841F4A021BD4A116000E097
:100BB00000BF00BF704710B501460022002300208F
:100BC0004A11012A02D1B64C236806E0022A02D15A
:100BD000B34C236A01E0B24C636A01F01F020124A6
:100BE00094401C4201D0012000E0002010BD70B5EF
:100BF00000240025002600BF3120FFF7DCFF064659
:100C0000641CB4F5A06F01D0002EF5D03120FFF7A1
:100C1000D2FF08B1012500E00025284670BD01463D
:100C200000209F4A106820F0F80040EAC1001060E0
:100C300070479E490860704702460020984B5868EC
:100C400020F47C1042EA01031843954B586070472A
:100C500096490866704701460020914A506820F086
:100C600003000843506070478D48406800F00C0056
:100C70007047014600208A4A506820F0F00008437F
:100C80005060704701460020854A506820F4E060BB
:100C900008435060704701460020814A506820F4A4
:100CA000605040EAC1005060704729B17C4A527AD6
:100CB00002437B4B5A7206E0794A527AC343DBB255
:100CC0001A40774B5A72704779490860704701465D
:100CD0000020734A506820F4404008435060704739
:100CE0000021744A11706E4A82F82010012802D047
:100CF000042808D103E001216E4A117004E00521A7
:100D00006C4A117000E000BF00BF70476A4908607C
:100D100070476349096A0143614A11627047674934
:100D20000860704730B500210022002400235C4D8C
:100D30006D6805F00C0121B1042905D0082923D1E3
:100D400005E05F4D056022E05D4D05601FE0544DFC
:100D50006D6805F47012524D6D6805F480340225FB
:100D600005EB92421CB9574D554305600BE04C4DC5
:100D70006D6815F4003F03D0524D5543056002E005
:100D80004F4D5543056002E04D4D056000BF00BF6B
:100D9000434D6D6805F0F00109094B4D6B5C05682A
:100DA000DD4045603E4D6D6805F4E061090A464D41
:100DB0006B5C4568DD408560394D6D6805F46051B8
:100DC000C90A414D6B5C4568DD40C560344D6D68B6
:100DD00005F44041890B3D4D6B5CC568B5FBF3F5EF
:100DE000056130BD29B12E4A526902432C4B5A612C
:100DF00004E02B4A52698243294B5A61704729B15A
:100E0000274A92690243264B9A6104E0244A926978
:100E10008243234B9A61704729B1214AD269024328
:100E20001F4BDA6104E01E4AD26982431C4BDA612F
:100E3000704729B11A4AD2680243194BDA6004E0BC
:100E4000174AD2688243164BDA60704729B1144AB8
:100E500012690243124B1A6104E0114A126982437B
:100E60000F4B1A6170471A49086070470F49C864F0
:100E700070470B49C87170470948406A40F080705C
:100E800007494862704701460020054A92680A42B5
:100E900001D0012000E000207047014988727047AE
:100EA000001002400000FFF8FFFFF6FE0000424283
:100EB000D800424220100240800442423C04424298
:100EC00000127A0000093D001400002024000020D8
:100ED0004004424210B50446FF48844208D1012133
:100EE000C014FFF7A6FF0021E014FFF7A2FFC4E043
:100EF000B4F1804F08D101210846FFF7A7FF002178
:100F00000120FFF7A3FFB8E0F448844208D1012193
:100F10000220FFF79BFF00210220FFF797FFACE0C4
:100F2000EF48844208D101210420FFF78FFF002100
:100F30000420FFF78BFFA0E0EA48844208D101219A
:100F40000820FFF783FF00210820FFF77FFF94E0D0
:100F5000E548844208D101211020FFF777FF0021E6
:100F60001020FFF773FF88E0E048844208D1012198
:100F70002020FFF76BFF00212020FFF767FF7CE0B8
:100F8000DB48844208D101214014FFF752FF0021C1
:100F90006014FFF74EFF70E0D648844209D101216A
:100FA000C804FFF746FF00214FF40020FFF741FF80
:100FB00063E0D148844209D101210805FFF739FFD8
:100FC00000214FF48010FFF734FF56E0CB488442F5
:100FD00009D101214805FFF72CFF00214FF4001033
:100FE000FFF727FF49E0C648844208D1012140208D
:100FF000FFF72CFF00214020FFF728FF3DE0C1480C
:10100000844208D101218020FFF720FF00218020A9
:10101000FFF71CFF31E0BC48844208D10121801554
:10102000FFF714FF0021A015FFF710FF25E0B748D8
:10103000844209D101210804FFF7FBFE00214FF48F
:101040008030FFF7F6FE18E0B148844209D1012153
:101050004804FFF7EEFE00214FF40030FFF7E9FEF1
:101060000BE0AC48844208D101218804FFF7E1FE7F
:1010700000214FF48020FFF7DCFE10BD0022028823
:10108000954B98420ED09A4B98420BD0B0F1804FBE
:1010900008D0924B984205D0914B984202D0914B88
:1010A000984204D14FF68F731A404B881A438E4BE7
:1010B000984207D08D4B984204D04FF6FF431A4018
:1010C000CB881A4302808B8883850B880385824BEB
:1010D00098420BD0864B984208D08C4B984205D052
:1010E0008B4B984202D08B4B984201D10B7A0386EE
:1010F00001238382704770B5002400220023058CF1
:101100004FF6FE7635400584028C8388048B4FF6BB
:101110008F752C40B51E2C400D882C43751E2A401F
:101120000D892A434D882A436B4DA8420BD0704D40
:10113000A84208D0754DA84205D0754DA84202D0EE
:10114000744DA84213D14FF6F7752A404D892A43B2
:101150004FF6FB752A408D882A434FF6FF652B40DA
:101160004FF6FF552B408D892B43CD892B43838030
:101170000483CD888586028470BD70B5002400226A
:101180000023058C4FF6EF7635400584028C83886A
:10119000048B48F6FF752C404FF6FF452C400D8818
:1011A0002D0644EA15444FF6DF752A400D892D05BA
:1011B00042EA15424D882D0542EA1542464DA842A5
:1011C00002D04B4DA8421BD14FF67F752A404D8966
:1011D0002D0542EA15424FF6BF752A408D882D0530
:1011E00042EA15424FF6FF352B404FF2FF752B4078
:1011F0008D89AD0443EA1543CD89AD0443EA154317
:1012000083800483CD880587028470BD70B5002477
:1012100000220023058C4FF6FF6635400584028CC2
:101220008388848B4FF68F752C404FF6FC752C40CD
:101230000D882C434FF6FF552A400D892D0642EAB2
:1012400015424D882D0642EA1542234DA84202D090
:10125000274DA8421BD14FF2FF752A404D892D061C
:1012600042EA15424FF6FF352A408D882D0642EAA4
:1012700015424EF6FF752B404DF6FF752B408D89BC
:101280002D0543EA1543CD892D0543EA1543838097
:101290008483CD888587028470BD70B500220023C9
:1012A0000024058C4EF6FF7635400584038C848837
:1012B000828B48F6FF752A404FF6FF452A400D887D
:1012C0002D0642EA15424DF6FF752B400D892D077C
:1012D00043EA15434D881FE0002C01400004004004
:1012E00000080040000C00400010004000140040C6
:1012F00000340140004C01400050014000540140C6
:1013000000180040001C0040002000400040014048
:1013100000440140004801402D0743EA1543F94DC0
:10132000A84202D0F84DA84206D14BF6FF752C40DA
:101330008D89AD0544EA154484808283CD88A0F868
:101340004050038470BD828B4FF2FF331A4082837A
:10135000828B0B0642EA134282837047F0B50C463B
:101360001546002200210026078C4EF6FF7C07EA76
:101370000C070784828B018C27073E0C40F6FF4741
:101380003A402F0642EA17421F0742EA1742DD4F52
:10139000B8420ED0DC4FB8420BD0B0F1804F08D02D
:1013A000DA4FB84205D0DA4FB84202D0D94FB8422E
:1013B00006D14DF6FF77394046F48057394305E0B2
:1013C00047F6FF57394044F48057394382830184FC
:1013D000F0BD828B4FF6F3731A408283828B0A43EF
:1013E00082837047F0B50C46154600220021002686
:1013F000078C4FF6FF6C07EA0C070784828B018C81
:1014000027063E0C4FF60C773A401F0545EA174772
:101410003A43BC4FB8420ED0BB4FB8420BD0B0F1EC
:10142000804F08D0B94FB84205D0B94FB84202D06A
:10143000B84FB84206D14FF6FF57394046F480778F
:10144000394305E04FF2FF57394044F48077394380
:1014500082830184F0BD028B4FF2FF331A40028376
:10146000028B0B0642EA134202837047F0B50C462A
:101470001546002200210026078C4FF6EF7C07EA74
:101480000C070784028B018C27053E0C40F6FF47B2
:101490003A401F0742EA17422F0642EA1742994F85
:1014A000B8420ED0984FB8420BD0B0F1804F08D060
:1014B000964FB84205D0964FB84202D0954FB842E9
:1014C00006D14FF6DF77394046F01007394305E083
:1014D0004FF65F77394044F01007394302830184A7
:1014E000F0BD028B4FF6F3731A400283028B0A435E
:1014F00002837047F0B50C46154600220021068C89
:101500004FF6FE773E400684028B018C4FF60C7638
:1015100032401E0545EA164632437A4EB0420ED09E
:10152000794EB0420BD0B0F1804F08D0774EB04228
:1015300005D0774EB04202D0764EB04206D14FF67B
:10154000FD76314044F00106314305E04FF6F57673
:10155000314044F00106314302830184F0BD70B58F
:1015600005460C46674885420ED0674885420BD039
:10157000B5F1804F08D06548854205D06448854262
:1015800002D06448854200D100E000BF208850B9F5
:101590002389A28861882846FFF7ACFFE1882846A6
:1015A000FFF79FFF25E0208804280AD12389A2881D
:1015B00061882846FFF75AFFE1882846FFF74BFF6E
:1015C00017E0208808280AD12389A2886188284644
:1015D000FFF708FFE1882846FFF7FBFE09E02389B3
:1015E000A28861882846FFF7B9FEE1882846FFF700
:1015F000AAFE70BD2DE9F04105460C4600260127E4
:10160000608808B9022600E00026A088012801D1E0
:10161000022700E001272088A0B92389A2886188D9
:101620002846FFF767FFE1882846FFF75AFF23891E
:101630003A4631462846FFF719FFE1882846FFF76A
:101640000AFF13E02389A28861882846FFF70EFF6E
:10165000E1882846FFF7FFFE23893A4631462846AF
:10166000FFF748FFE1882846FFF73BFFBDE8F08120
:101670000A884B881A438B881A43CB881A430B89F4
:101680001A434B891A438B891A43A0F844207047A8
:101690004FF6FF71818000210180C180418001727D
:1016A00070470021018041808180C180018141819A
:1016B0008181C181704700210180418001218180A9
:1016C0000021C1800181704700210180418081801B
:1016D000C180018141818181704721B1028842F03E
:1016E0000102028004E002884FF6FE731A40028075
:1016F000704789B1B0F8442042F40042A0F8442079
:1017000010E00000002C01400034014000040040C3
:1017100000080040000C0040B0F84420C2F30E0264
:10172000A0F84420704710B51AB183890B43838118
:1017300004E08389CC43A4B22340838110BD81821D
:10174000704741EA0203A0F84830704710B51AB15B
:1017500083890B43838104E08389CC43A4B2234073
:10176000838110BD01894FF6F872114001817047E5
:101770000A46002101894FF68F73194011430181F8
:10178000704730B504460D4629462046FFF7F0FF66
:10179000208940F00700208130BD2DE9F04104464A
:1017A0000D4616461F46602D06D13B4601223146A6
:1017B0002046FFF75BFE05E03B460122314620460E
:1017C000FFF798FE29462046FFF7D2FF208940F018
:1017D00007002081BDE8F08130B50C460021018969
:1017E000C9B21D0642EA154525432943018130BD92
:1017F0002DE9F04105460E4617469846002443461B
:101800003A4631462846FFF7E7FF2C894FF6F87134
:101810000C4044F007044FF68F710C4044F0700404
:101820002C81BDE8F081F0B504460D4616461F46F2
:101830003B46324629462046FFF7CEFF208940F43A
:1018400080402081F0BD0185828270470A460021D8
:1018500001884FF68F731940114301807047F0B52E
:101860000C4615461E460021002200230189028BEA
:10187000038C4FF6F877394021434FF6FC473A4046
:1018800040F201173A434FF6DD773B40370545EA12
:1018900017473B43018102830384F0BD0A460021C0
:1018A000018B4FF68F7319401143018370470A462D
:1018B0000021018B48F6FF731940130641EA1341DA
:1018C000018370470A460021818B4FF68F731940C0
:1018D0001143818370470A460021818B48F6FF73CC
:1018E0001940130641EA13418183704721B10288F0
:1018F00042F08002028004E002884FF67F731A40B3
:101900000280704721B1828842F00402828004E0A4
:1019100082884FF6FB731A408280704721B182881B
:1019200042F00802828004E082884FF6F7731A4082
:101930008280704721B1828842F00102828004E0F7
:1019400082884FF6FE731A40828070470A46002153
:10195000018B4FF6F77319401143018370470A4614
:101960000021018B4FF2FF731940130641EA134126
:10197000018370470A460021818B4FF6F7731940A7
:101980001143818370470A460021818B4FF2FF7318
:101990001940130641EA1341818370470A4600212A
:1019A000018B4FF6FB7319401143018370470A46C0
:1019B0000021018B4FF6FF331940130641EA134112
:1019C000018370470A460021818B4FF6FB73194053
:1019D0001143818370470A460021818B4FF6FF3304
:1019E0001940130641EA1341818370470A460021DA
:1019F000018B4FF67F7319401143018370470A46EC
:101A00000021018BC1F30E01130641EA134101834A
:101A100070470A460021818B4FF67F7319401143AE
:101A2000818370470A460021818BC1F30E011306A2
:101A300041EA1341818370470A460021018C4FF629
:101A4000FD7319401143018470470A460021018C3F
:101A50004FF6F77319401143018470470A4600217D
:101A6000018C4FF6DF731940130541EA13410184DD
:101A700070470A460021018C4FF67F731940130509
:101A800041EA1341018470470A460021018C4FF658
:101A9000FF531940130641EA1341018470470A4677
:101AA0000021018C4FF2FF731940130641EA1341E4
:101AB000018470470A460021018C4DF6FF731940DE
:101AC000130741EA13410184704730B50023012414
:101AD0008C40A3B2048CDD43ADB22C400484048C52
:101AE00002FA01F5ADB22C43048430BD30B50023B9
:101AF00004248C40A3B2048CDD43ADB22C4004849A
:101B0000048C02FA01F5ADB22C43048430BD70B5EB
:101B10000346002000241846183001258D40ACB241
:101B20001D8CE643B6B235401D8409B1082909D1A0
:101B300000EB6100056825F0700505600568154338
:101B400005600CE00D1FADB200EB6500056825F4E3
:101B5000E04505600568160645EA1645056070BD56
:101B600021B1028842F00202028004E002884FF6AE
:101B7000FD731A400280704721B1028842F00402CE
:101B8000028004E002884FF6FB731A40028070471F
:101B900021B1828842F08002828004E082884FF680
:101BA0007F731A408280704702884FF6F7731A409D
:101BB000028002880A430280704782884FF68F7342
:101BC0001A40828082880A438280704702894FF6D9
:101BD000F8731A40028102890A4302817047028920
:101BE0004FF67F731A40028102890A4302817047CF
:101BF000818470478185704781867047018770476F
:101C000081877047A0F84010704702884FF6FF4365
:101C10001A40028002880A43028070470146888E7B
:101C200070470146088F70470146888F704701460C
:101C3000B1F8400070470146888C70470146088D16
:101C4000704702460020138A0B4201D0012000E0B9
:101C500000207047CA430282704730B50246002018
:101C600000230024158A05EA0103958905EA010489
:101C700013B10CB1012000E0002030BDCA43028244
:101C80007047000010B50446FC48844209D1012188
:101C90008803FFF7CEF800214FF48040FFF7C9F822
:101CA00032E0F748844209D101214804FFF7CEF819
:101CB00000214FF40030FFF7C9F825E0F1488442D5
:101CC00009D101218804FFF7C1F800214FF48020D9
:101CD000FFF7BCF818E0EC48844209D10121C804A0
:101CE000FFF7B4F800214FF40020FFF7AFF80BE046
:101CF000E648844208D101210805FFF7A7F8002132
:101D00004FF48010FFF7A2F810BD2DE9F04786B020
:101D100005460E460024A24600BFA1460027B08912
:101D200000B100BF2F462C8A4CF6FF700440F088AB
:101D300004432C82AC894EF6F3100440B0883189FC
:101D40000843718908430443AC81AC8A4FF6FF40D5
:101D50000440B0890443AC8201A8FEF7E3FFC74802
:101D6000874202D1DDF810A001E0DDF80CA0A889BF
:101D700010F4004F08D00AEBCA0000EB0A103168DB
:101D80004900B0FBF1F807E00AEBCA0000EB0A10CB
:101D900031688900B0FBF1F86420B8FBF0F0040171
:101DA0002009642101FB1089A88910F4004F08D094
:101DB000322000EBC900B0FBF1F000F00700044353
:101DC00008E0322000EB09106421B0FBF1F000F0D4
:101DD0000F0004432C8106B0BDE8F0874FF4165184
:101DE000016000218180C18001810C21418100219D
:101DF0008181704710B502460020108A4FF2FF0320
:101E000018400B884C8823438C882343CC88234379
:101E10001843108210BD0021018041808180C18063
:101E2000704721B1828942F40052828104E08289A4
:101E30004DF6FF731A4082817047F0B503460024C7
:101E4000002600250020A1F510676A3F00D100BFE1
:101E50001846C1F3421401F01F06012707FA06F5E0
:101E6000012C01D10C3004E0022C01D1103000E033
:101E700014301AB107682F43076002E00768AF43C8
:101E80000760F0BD10B51AB1838A0B43838204E06A
:101E9000838ACC43A4B22340838210BD028A4FF6CA
:101EA000F0731A400282028A0A43028270478289D2
:101EB0004FF2FF731A40828182890A438281704700
:101EC00021B1828942F00202828104E082894FF6C8
:101ED000FD731A4082817047028A4FF6DF731A4001
:101EE0000282028A0A430282704721B1028A42F4C6
:101EF0008042028204E0028A4BF6FF731A4002829B
:101F00007047C1F308028280704701468888C0F399
:101F100008007047818941F0010181817047028B7F
:101F2000D2B20283028B42EA012202837047028B03
:101F300002F47F420283028B0A430283704721B17D
:101F4000828A42F02002828204E0828A4FF6DF73A6
:101F50001A408282704721B1828A42F01002828246
:101F600004E0828A4FF6EF731A408282704721B1F3
:101F7000828A42F00802828204E0828A4FF6F77376
:101F80001A408282704721B1828942F400428281E4
:101F900003E08289C2F30E028281704721B1828AF6
:101FA00042F40062828204E0828A4FF2FF731A4098
:101FB00082827047828A4FF6FB731A408282828A3D
:101FC0000A438282704721B1828A42F002028282F1
:101FD00004E0828A4FF6FD731A40828270470246FF
:101FE0000020B1F5007F00D100BF13880B4201D063
:101FF000012000E00020704701F40072B2F5007F7C
:1020000000D100BFCA430280704770B50246002469
:10201000002300250020A1F510666A3E00D100BF14
:10202000C1F3421501F01F03012606FA03F3012D47
:1020300002D19689334006E0022D02D1168A334040
:1020400001E0968A33400C12012606FA04F4168841
:10205000344013B10CB1012000E0002070BD10B578
:1020600000220023A1F510646A3C00D100BF0A12CF
:1020700001249440A3B2DC43048010BD0038014029
:102080000044004000480040004C00400050004028
:1020900010B56FF00400FEF77CFB2A4800682A495F
:1020A000B0FBF1F029490870084600784FF47A71C6
:1020B00048432749088010BD0146244A12784A4304
:1020C0004FF0E0235A6100229A611A46126942F0E9
:1020D00001021A6100BF4FF0E022106910F0010FF9
:1020E00002D010F4803FF6D04FF0E022126922F0C7
:1020F00001024FF0E0231A6100229A617047014605
:10210000134A12884A434FF0E0235A6100229A6131
:102110001A46126942F001021A6100BF4FF0E02234
:10212000106910F0010F02D010F4803FF6D04FF08C
:10213000E022126922F001024FF0E0231A6100222E
:102140009A6170470000002000127A0028000020E9
:102150002A00002010B54FF44070FEF7C1FA10BD00
:1021600030B5039C002545608560C5600561016050
:1021700042618361C461FC4DC56230BD2DE9F84FF9
:1021800006468A4690469946C6F800805146306811
:1021900003F0D4FF7060F549706803F0C1FE044697
:1021A000F16803F025FDF060F16AF06803F08BFF41
:1021B00002D2F06AF0600BE0F06A80F00044204642
:1021C000F16803F080FF03D2F06A80F00040F06015
:1021D00089F000403061706803F0DEFC21F00041BE
:1021E00004460022134603F0C5FA26D271687069CE
:1021F00003F096FE3062F168B06903F091FE706200
:102200003169F06903F08CFEB0623169F06903F066
:1022100087FE0090F168B06903F082FE05467168A0
:10222000706903F07DFE8346294603F0E1FC044615
:10223000009903F0DDFC074601E0CD4807687068AF
:10224000B060CB4807603846BDE8F88FC162704780
:1022500008B5C84B009300234FF07F521946C6487B
:10226000FFF77EFFC34B009300234FF07F521946C8
:10227000C248FFF775FF00231A461946C04800936D
:10228000FFF76EFFBF49BC48FFF7E0FFBE49BB4800
:10229000FFF7DCFFBD49BA48FFF7D8FF08BD10B50E
:1022A0000446BB49204603F00EFF01D2B84C07E0BC
:1022B000B849204603F000FE01D2B64C00E000BF52
:1022C000204603F0C5FD10BD2DE9F047B248006877
:1022D00003F0DAFD0446B1480368B14822460168BC
:1022E000A548FFF74BFFAF490860AF48006803F00F
:1022F000CBFD0446A9484368A948224641689F4847
:10230000FFF73CFFA9490860A948006803F0BCFD3D
:102310000446A2488368A248224681689848FFF78D
:102320002DFFA44908604FF07E51A248006803F0D9
:10233000F7FD07464FF07E519A48006803F0F0FD24
:1023400080464FF07E519948006803F0E9FD8146D0
:102350009948006803F098FD8246494603F048FC1E
:102360000646414603F044FC0546394603F040FC6E
:102370000446FFF794FF9149086091498D48006831
:1023800003F0CEFD07464FF07E518648006803F00B
:10239000C7FD80468A498548006803F0C1FD814633
:1023A0008548006803F070FD8246494603F020FC32
:1023B0000646414603F01CFC0546394603F018FC6E
:1023C0000446FFF76CFF7F4908607D497948006843
:1023D00003F0A6FD07467A497248006803F0A0FDA5
:1023E00080464FF07E517148006803F099FD8146A8
:1023F0007148006803F048FD8246494603F0F8FB47
:102400000646414603F0F4FB0546394603F0F0FB6F
:102410000446FFF744FF6C4908604FF07E51654861
:10242000006803F07DFD074665495E48006803F0DB
:1024300077FD804662495D48006803F071FD814682
:102440005D48006803F020FD8246494603F0D0FB5A
:102450000646414603F0CCFB0546394603F0C8FB6F
:102460000446FFF71CFF59490860BDE8F08770B5C6
:10247000B1F57A7F01DA4FF47A70B1F5FA6F01DDC8
:102480004FF4FA60B0F57A7F01DA4FF47A71B0F563
:10249000FA6F01DD4FF4FA61B2F57A7F01DA4FF499
:1024A0007A72B2F5FA6F01DD4FF4FA62B3F57A7F12
:1024B00001DA4FF47A73B3F5FA6F01DD4FF4FA6382
:1024C0003D4C2160424C2468141B374D2C60414C1C
:1024D0002468041B304D2C603F4C24681C1B344D79
:1024E0002C60314C24686442142594FBF5F42E4D85
:1024F0002C60294C24686442142594FBF5F4264D85
:102500002C602B4C24680A2C08DA294C246814F11E
:102510000A0F03DD0024264D2C6007E0244D2C68B3
:10252000E51704EB5575ED10214E356070BD2DE9B2
:10253000F0410546884616461F46002409E0244817
:1025400000683044224908601E20FFF7D8FD601C57
:10255000C4B20A2CF3DB1E4800680A2190FBF1F09C
:102560001B490860002443E00000C8426F12833B0F
:1025700050000020000020421401002044010020EF
:10258000740100200000A0420000C8410000A041EA
:102590000000FA4400007A44400000207C02002041
:1025A00094020020640000203C000020680000200D
:1025B000440000206C00002038000020540000205F
:1025C000000080BF580000205C0000206000002058
:1025D0002C00002030000020340000201448006847
:1025E0002844134908601920FFF789FD601CC4B214
:1025F0000A2CF3DB0E4800680A2190FBF1F00C492D
:102600000860002409E00B48006838440949086064
:102610001920FFF774FD601CC4B20A2CF3DB0548D7
:1026200000680A2190FBF1F002490860BDE8F081E2
:10263000300000203400002008B501210420FEF7FE
:10264000DEFB0F20ADF8000003208DF802001820FB
:102650008DF8030069463C48FEF71EF908BDF0B549
:1026600087B004460D4616461F4601210820FEF796
:10267000D3FB44F61F60ADF814004720ADF81000FE
:102680000020ADF81600ADF8120044F61F60ADF85A
:10269000140004A92D48FEF7F1FC6020ADF80000FD
:1026A0000120ADF802000020ADF80600ADF80800EA
:1026B00069462648FEF71FFD08212448FFF746F922
:1026C00069462248FEF759FD08212048FFF747F9DF
:1026D00069461E48FEF79AFD08211C48FFF74AF993
:1026E00069461A48FEF7D9FD08211848FFF74BF94B
:1026F00001211648FFF7FAF801211448FEF7EDFF13
:1027000007B0F0BD10B5FFF797FF00231A46194632
:102710001846FFF7A4FF10BD2DE9F04104460F460F
:1027200015461E4621460948FFF766FA394607480E
:10273000FFF764FA29460548FFF762FA3146034875
:10274000FFF760FABDE8F08100080140000C00408E
:10275000014600BF704700BF484A128812F0400F80
:10276000FAD0C2B2464B1A80704710B586B0044604
:10277000012144F20400FEF742FB4FF40070ADF873
:10278000140003208DF8160018208DF8170005A9F5
:102790003C48FEF781F84FF48060ADF81400042047
:1027A0008DF8170005A93748FEF776F825208DF833
:1027B000000003208DF801008DF8020001208DF843
:1027C00003006846FDF791FF01940020ADF8080072
:1027D000ADF80A00ADF80C00ADF810000C20ADF813
:1027E0000E0001A92548FFF790FA012240F2255179
:1027F0002248FFF722FB01212048FFF712FB06B019
:1028000010BD10B540F225511C48FFF7FEFB10B378
:102810001A48FFF77AFBC4B21B48008810F4004F37
:102820002BD11948008810F4804F0CD00A2C03D00B
:1028300000201549088020E01348008840F400403B
:102840001149088019E00D2C06D10F48008840F48A
:1028500080400D49088010E00B480088C0F30D004F
:102860000A490C5408480088401C0749088008465B
:102870000088C72801DD0020088010BD0038014015
:10288000043801400008014070000020A40100202D
:1028900008B501210820FEF7B2FA01214805FEF72C
:1028A000BBFA4FF44060ADF8000003208DF8020041
:1028B00014208DF803006946B348FDF7EDFF08BD0D
:1028C000072001E0411EC8B20028FBD1704710B5B7
:1028D0004FF40061AC48FEF78AF84FF48061AA48D3
:1028E000FEF785F8FFF7ECFF4FF40061A648FEF70E
:1028F00064F808B9002010BD4FF40061A248FEF74B
:1029000078F8FFF7DDFF4FF400619F48FEF755F8B8
:1029100008B10020EFE74FF400619B48FEF769F82B
:10292000FFF7CEFF0120E6E710B54FF4806196482F
:10293000FEF75FF8FFF7C4FF4FF400619248FEF71F
:1029400058F8FFF7BDFF4FF480618F48FEF74FF84E
:10295000FFF7B6FF4FF400618B48FEF748F8FFF72A
:10296000AFFF10BD10B54FF480618748FEF741F806
:10297000FFF7A6FF4FF400618348FEF73AF8FFF730
:102980009FFF4FF480618048FEF731F8FFF798FF12
:102990004FF480617C48FEF72CF8FFF791FF10BDE3
:1029A00010B54FF480617848FEF723F8FFF788FFF1
:1029B0004FF400617448FEF71AF8FFF781FF4FF4F7
:1029C00080617148FEF713F8FFF77AFF4FF48061DA
:1029D0006D48FEF70EF8FFF773FF10BD10B54FF40A
:1029E00080616948FEF705F8FFF76AFF4FF4006160
:1029F0006548FDF7FCFFFFF763FF4FF48061624815
:102A0000FDF7F5FFFFF75CFF4FF400615E48FDF74F
:102A1000D4FF40B14FF480615B48FDF7EAFFFFF758
:102A20004FFF002010BD4FF480615748FDF7E1FFD4
:102A3000FFF746FF0120F5E770B5044608251FE0C3
:102A40004FF480615048FDF7D4FFFFF739FF14F0D1
:102A5000800F05D04FF400614B48FDF7C8FF04E03C
:102A60004FF400614848FDF7C4FF6006040EFFF70D
:102A700027FF4FF480614448FDF7B9FFFFF720FFBF
:102A80002800A5F10101CDB2DAD14FF480613E48B2
:102A9000FDF7AFFF70BD70B50825002429023A4844
:102AA000FDF7A5FF17E06006040E4FF4806136487D
:102AB000FDF79FFFFFF704FF4FF480613248FDF7F9
:102AC00096FFFFF7FDFE4FF400612F48FDF775FFFD
:102AD00008B144F001042800A5F10101CDB2E2D112
:102AE0004FF480612848FDF784FF204670BD70B523
:102AF00006460C461546FFF7EAFE08B9002070BDF1
:102B00003046FFF799FFFFF769FF18B9FFF70CFF91
:102B10000020F4E72046FFF78FFFFFF75FFF28460E
:102B2000FFF78AFFFFF75AFFFFF7FEFE0120E6E7F7
:102B300070B504460D46FFF7CAFE08B9002070BD07
:102B40002046FFF779FFFFF749FF30B9FFF7ECFEAA
:102B500001200E4908700020F1E72846FFF76CFFBE
:102B6000FFF73CFFFFF7B3FE601CC0B2FFF764FF46
:102B7000FFF734FFFFF78FFF0646FFF711FFFFF760
:102B8000D3FE3046DBE70000000C01407800002057
:102B900010B54421D020FFF7CBFFFF490870432137
:102BA000D020FFF7C5FFFC494870084600784978F7
:102BB00040EA012000B2F94908804621D020FFF701
:102BC000B7FFF54988704521D020FFF7B1FFF249E2
:102BD000C87008468078C97840EA012000B2EF4901
:102BE00048804821D020FFF7A3FFEB490871472117
:102BF000D020FFF79DFFE8494871084600794979E0
:102C000040EA012000B2E54988803C21D020FFF74E
:102C10008FFFE14988713B21D020FFF789FFDE4912
:102C2000C87108468079C97940EA012000B2DC49C0
:102C300008803E21D020FFF77BFFD74908723D2155
:102C4000D020FFF775FFD44948720846007A497AC8
:102C500040EA012000B2D24948804021D020FFF74D
:102C600067FFCD4988723F21D020FFF761FFCA4935
:102C7000C8720846807AC97A40EA012000B2C84981
:102C8000888010BD2DE9F041C649486802F084FFF4
:102C900006460022C44B02F095FE044602F0A6F957
:102CA000C0494860086802F077FF04460022BE4B26
:102CB00002F088FE064602F099F9BA490860BDE8BC
:102CC000F0812DE9F0410026C824002700254FF0AF
:102CD000000800BF12E0FFF75BFFB148B0F9000049
:102CE0000744AF48B0F902000544AD48B0F904000C
:102CF00080440220FFF703FA701CC6B2A642EADB4A
:102D000097FBF4F000B2A949088095FBF4F000B2FB
:102D1000488095FBF4F000B28880BDE8F0812DE991
:102D2000F0414FF00008C82400250026002700BF0E
:102D300014E0FFF72DFF9948B0F9000005449748CB
:102D4000B0F9020006449548B0F904000744022097
:102D5000FFF7D5F908F1010000F0FF08A045E8DB16
:102D600095FBF4F000B29249088096FBF4F000B2B3
:102D7000488097FBF4F000B28880BDE8F0812DE92F
:102D8000FC5FFFF705FF8549B1F90010884AB2F9E9
:102D90000020881A02F09DFB0646864A864B02F008
:102DA000EBFB0446854A864B02F0E6FB804602F0C8
:102DB0001DF9844908607949B1F902107C4AB2F9D9
:102DC0000220881A02F085FB06467A4A7A4B02F006
:102DD000D3FB0446794A7A4B02F0CEFB804602F0E0
:102DE00005F9784948606D49B1F90410704AB2F9A3
:102DF0000420881A02F06DFB80466E4A6E4B02F08A
:102E0000BBFB06466D4A6E4B02F0B6FB044602F071
:102E1000EDF86C4988606249B1F90010634AB2F973
:102E20000020881A02F055FB0646624A664B02F003
:102E3000A3FB044602F0DAF8019002F0ADFE8046F2
:102E4000624A634B02F098FB824602F0CFF8614978
:102E500008605349B1F90210544AB2F90220881AA5
:102E600002F037FB0446534A574B02F085FB80467D
:102E700002F0BCF8824602F08FFE0646534A544BDD
:102E800002F07AFBCDE9000102F0B0F85149486048
:102E90004349B1F90410454AB2F90420881A02F0F6
:102EA00018FB8046434A484B02F066FB044602F09A
:102EB0009DF8824602F070FE0646444A444B02F0FA
:102EC0005BFBCDE9000102F091F842498860BDE862
:102ED000FC9F0FB595B0002014901B99084603F095
:102EE0001FF808901A99084603F01AF806901899E6
:102EF000084603F015F80590069902F079FE079050
:102F0000089902F075FE099002F046FECDE90A012B
:102F100002F046F8CDE90C0102F068F8149014991B
:102F2000189802F0D3FE189014991A9802F0CEFE69
:102F30001A9014991B9802F0C9FE1B90264801684C
:102F40002648006802F0ECFF0C90254801682548EF
:102F5000006802F0E5FF0B900C9903F0EFF84FF0DA
:102F600080410D9002F0DCFF13901D4801681A4863
:102F7000006802F0D5FF0C901A48016817480068F5
:102F800002F0CEFF0B900C9902F032FE4FF0804120
:102F90000D9002F0C5FF27E06C020020A800002081
:102FA000AE000020940200200000F0BFBA00002014
:102FB000B400002008AC1C5A643BAF3FA835CD3BA1
:102FC0004ED1913F7C020020643BCF3F6EA301BCF9
:102FD0000512843F88020020900000208800002015
:102FE000940000208C0000201290FF4801680068C7
:102FF00002F096FF0D90FD480168006802F090FF16
:103000000B90FB480168006802F08AFF0990F948BC
:103010000168006802F084FF0890099903F08EF8B7
:103020000A900B9903F08AF80C900D9902F0E0FDDC
:10303000119012991B9802F073FF0D9011991A9834
:1030400002F06EFF0C900D9903F078F81090119932
:10305000189802F065FF0D9013991B9802F060FF1D
:103060000C900D9903F06AF80F9013991A9802F0DA
:1030700057FF0D901299189802F052FF0C900D997D
:1030800003F05CF80E90DC49109802F049FF0D90B7
:10309000DA4801680D9802F0ABFDD8490860D649BE
:1030A0000F9802F03DFF0D90D54801680D9802F091
:1030B0009FFDD3490860D0490E9802F031FF0D9072
:1030C000D04801680D9802F093FDCE490860CE48C3
:1030D000109902F025FF0C90159902F089FD0D90D2
:1030E000C64801680D9802F083FD1590C6480F99F7
:1030F00002F016FF0C90169902F07AFD0D90C04870
:1031000001680D9802F074FD1690BF480E9902F008
:1031100007FF0C90179902F06BFD0D90B9480168FC
:103120000D9802F065FD1790AF481799006802F0FE
:10313000F7FE0490AD481699006802F0F1FE029087
:10314000AB48006880F000400090159902F0E8FE5E
:103150000190029902F0F2FF0390049902F0EEFF51
:10316000059002F019FDA94AA94BCDE9060102F02C
:1031700003FACDE90A019F48006802F00DFDCDE990
:103180000801DDE90A2301F063FFCDE90C0101F03C
:103190002DFF9849086094481699006802F0C0FE17
:1031A000049092481799006802F0BAFE0290914884
:1031B0000168159802F0B4FE0190029902F018FD22
:1031C0000390049902F0BAFF059002F0E5FC8F4AE3
:1031D0008F4BCDE9060102F0CFF9CDE90A01844811
:1031E000006802F0D9FCCDE90801DDE90A2301F00D
:1031F0002FFFCDE90C0101F0F9FE7D4908607A4806
:103200000168159802F08CFE0490794817990068BF
:1032100002F086FE029077481699006802F080FE60
:103220000190029902F08AFF0390049902F0E0FCF9
:10323000059002F0B1FC754A754BCDE9060102F02C
:103240009BF9CDE90A016948006802F0A5FCCDE9C7
:103250000801DDE90A2301F0FBFECDE90C0101F0D4
:10326000C5FE6249086008460168159802F058FEDC
:1032700004905F481699006802F052FE02905D4883
:103280001799006802F04CFE0190029902F0B0FC20
:103290000390049902F052FF059002F07DFC5B4A16
:1032A0005B4BCDE9060102F067F9CDE90A014E4812
:1032B000006802F071FCCDE90801DDE90A2301F0A4
:1032C000C7FECDE90C0101F091FE474908600846B0
:1032D0000168006802F024FE089044480168006814
:1032E00002F01EFE069042480168006802F018FED7
:1032F000049040480168006802F012FE03900499AF
:1033000002F076FC0590069902F072FC079008998D
:1033100002F06EFC099002F03FFCCDE90A0101F0D9
:103320003FFECDE90C0101F061FE14903148149983
:10333000006802F0CBFC2F4908602D481499006802
:1033400002F0C4FC2A49086028481499006802F079
:10335000BDFC2649086024481499006802F0B6FCB8
:1033600021490860234801684FF0804002F0D8FDF1
:1033700004901E480168049802F0D2FD06901C4893
:1033800001684FF0404002F0CBFD04901648016800
:10339000049802F0C5FD0590069902F029FC0790FB
:1033A00002F0FAFBCDE9080101F0E8FA4FF06632CD
:1033B000184BCDE90A0102F0DFF8CDE90C0101F06C
:1033C00015FE15494860094801684FF0804002F039
:1033D000A7FD019005480168019802F0A1FD039046
:1033E000034801681AE000009400002090000020CB
:1033F0008C00002088000020A69B443B7C0000201D
:1034000080000020840000200000C842FCA9F1D206
:103410004D62603F66A64C40940200204FF0404051
:1034200002F07EFD0190FF480168019802F078FDEE
:103430000290039902F082FE4FF07E51049002F058
:10344000D7FB059002F0A8FBCDE90801F64801681A
:103450004FF0804002F064FD0290F248016802984B
:1034600002F05EFD0490F14801684FF0804002F0E8
:1034700057FD0290EE480168029802F051FD03905A
:10348000049902F0B5FB059002F086FBCDE9060138
:10349000DDE9082301F0C4FC4FF06632E54BCDE9CD
:1034A0000A0102F069F8CDE90C0101F09FFDE24943
:1034B0000860DF4801684FF0804002F031FD019064
:1034C000DB480168019802F02BFD0390D7480168A2
:1034D0004FF0404002F024FD0190D448016801986B
:1034E00002F01EFD0290039902F028FE4FF07E517B
:1034F000049002F07DFB059002F04EFBCDE908013F
:10350000C94801684FF0804002F00AFD0290C848A7
:103510000168029802F004FD0490C24801684FF06F
:10352000804002F0FDFC0290C0480168029802F061
:10353000F7FC0390049902F05BFB059002F02CFB72
:10354000CDE90601DDE9082301F06AFC81F00041C4
:103550004FF06632B74BCDE90A0102F00DF8CDE924
:103560000C0101F043FDB449886019B000BD0FB5EE
:10357000ABB0B2480168006802F0D2FC1A90B048C3
:103580000168AE48006802F0CBFC1990AD480168B4
:10359000AA48006802F0C4FC1890AB480168A7482C
:1035A000006802F0BDFC1790A5480168006802F0B1
:1035B000B7FC1690A3480168A148006802F0B0FC6F
:1035C0001590A14801689E48006802F0A9FC14907B
:1035D0009C480168006802F0A3FC13909A480168B7
:1035E0009848006802F09CFC1290974801680068B7
:1035F00002F096FC1190002010903199084602F0DC
:103600008FFC0A903099084602F08AFC08902E99A7
:10361000084602F085FC0790089902F0E9FA099043
:103620000A9902F0E5FA0B9002F0B6FACDE90C0126
:1036300001F0B6FCCDE90E0101F0D8FC29902999E2
:103640002E9802F043FB2E902999309802F03EFB11
:1036500030902999319802F039FB3190349908461D
:1036600002F05EFC0A903399084602F059FC08907B
:103670003299084602F054FC0790089902F0B8FA13
:1036800009900A9902F0B4FA0B9002F085FACDE99C
:103690000C0101F085FCCDE90E0101F0A7FC299099
:1036A0002999329802F012FB32902999339802F04E
:1036B0000DFB33902999349802F008FB3490189947
:1036C000149802F095FA0D904FF08040349902F072
:1036D00027FC0C900D9902F023FC0F901799159878
:1036E00002F02CFD0B904FF08040339902F018FC53
:1036F0000A900B9902F014FC0D904FF07C50139936
:1037000002F01CFD0990119902F018FD0B904FF08A
:103710008040329902F004FC0A900B9902F000FC00
:103720000C900D9902F064FA0E900F9902F060FA75
:1037300028901999129802F001FD0D904FF08040E9
:10374000349902F0EDFB0C900D9902F0E9FB0F901B
:103750004FF07C50169902F0F1FC0990119902F09B
:10376000EDFC0B904FF08040339902F0D9FB0A90AA
:103770000B9902F0D5FB0D901799159802F038FAC5
:103780000B904FF08040329902F0CAFB0A900B99DF
:1037900002F0C6FB0C900D9902F02AFA0E900F99D8
:1037A00002F026FA27904FF07C50169902F0C6FCE2
:1037B0000B90139902F0C2FC0D904FF080403499A9
:1037C00002F0AEFB0C900D9902F0AAFB0F90199934
:1037D000129802F00DFA0B904FF08040339902F0EE
:1037E0009FFB0A900B9902F09BFB0D90189914987F
:1037F00002F0A4FC0B904FF08040329902F090FB55
:103800000A900B9902F08CFB0C900D9902F0F0F9E4
:103810000E900F9902F0ECF926902799084602F0D5
:103820007FFB13E08C000020880000209000002027
:103830009400002066A64C409402002098000020CE
:103840009C000020A0000020A40000200A902899DD
:10385000084602F065FB09900A9902F0C9F90B903D
:1038600002F09AF9CDE90C0101F09AFBCDE90E01C5
:1038700001F0BCFB2590269824901899149802F02A
:103880005DFC4FF080410F9002F04AFB23901299AB
:10389000199802F0ADF94FF080410F9002F040FB13
:1038A000229016991A9802F049FC0E90139902F092
:1038B00045FC0F90119902F09BF9219012991998EB
:1038C00002F096F90D904FF08040249902F028FB09
:1038D0000C900D9902F024FB0F901799159802F0A7
:1038E0002DFC0D904FF08040259902F019FB0C90B3
:1038F0000D9902F015FB0E900F9902F079F91F90C7
:103900001F99349802F00CFB0D901E99339802F029
:1039100007FB0C900D9902F011FC0F902299319841
:1039200002F0FEFA0D902199309802F0F9FA0C900D
:103930000D9902F003FC0E900F9902F059F91D90B9
:103940001E99329802F0ECFA0D902099349802F00A
:10395000E7FA0C900D9902F0F1FB0F9021992E9847
:1039600002F0DEFA0D902399319802F0D9FA0C900A
:103970000D9902F0E3FB0E900F9902F039F91C90BB
:103980002099339802F0CCFA0D901F99329802F0EA
:10399000C7FA0C900D9902F0D1FB0F902399309843
:1039A00002F0BEFA0D9022992E9802F0B9FA0C900E
:1039B0000D9902F0C3FB0E900F9902F019F91B90BC
:1039C000FF491D9802F0ACFA079002F0E5F8FD4AB5
:1039D000FD4BCDE9080101F0F5FBCDE90C012B9879
:1039E00002F0DAF8CDE90A01DDE90C2301F030FB41
:1039F000CDE90E0101F0FAFA2B90F1491C9802F082
:103A00008FFA079002F0C8F8EE4AEF4BCDE90801B3
:103A100001F0D8FBCDE90C012C9802F0BDF8CDE9FE
:103A20000A01DDE90C2301F013FBCDE90E0101F0E1
:103A3000DDFA2C90E2491B9802F072FA079002F02E
:103A4000ABF8E04AE04BCDE9080101F0BBFBCDE962
:103A50000C012D9802F0A0F8CDE90A01DDE90C2354
:103A600001F0F6FACDE90E0101F0C0FA2D902D9883
:103A700002F092F8D34AD54BCDE9040101F07CFD68
:103A8000CDE908012D9802F087F8CE4ACF4BCDE959
:103A9000040101F071FDCDE90601DDE9082301F023
:103AA0006BFDCDE90C012C9802F076F8C54AC74BA6
:103AB000CDE9000101F060FDCDE904012C9802F090
:103AC0006BF8C04AC14BCDE9000101F055FDCDE9CD
:103AD0000201DDE9042301F04FFDCDE908012B9837
:103AE00002F05AF8B74AB94BCDE9000101F044FDA4
:103AF000CDE904012B9802F04FF8B24AB34BCDE95F
:103B0000000101F039FDCDE90201DDE9042301F0F6
:103B100033FDCDE90601DDE9082301F099FACDE98D
:103B20000A01DDE90C2301F093FACDE90E0101F061
:103B30005DFA1090A6482D99006802F0F1F9069000
:103B4000A4482C99006802F0EBF90490A2480068A0
:103B500080F0004002902B9902F0E2F90390049962
:103B600002F0ECFA0590069902F0E8FA079002F0EC
:103B700013F8944A944BCDE9080101F0FDFCCDE91E
:103B80000C014FF08241109802F0A0F84FF07E51E6
:103B9000079002F0C9FA089090480168089802F06E
:103BA000BFF9099001F0F8FFCDE90A01DDE90C2326
:103BB00001F04EFACDE90E0101F018FA87490860CC
:103BC00083482C99006802F0ABF9069081482D9942
:103BD000006802F0A5F90490804801682B9802F073
:103BE0009FF90390049902F003F80590069902F0FA
:103BF000A5FA079001F0D0FF724A734BCDE9080196
:103C000001F0BAFCCDE90C014FF08241109802F0AE
:103C10005DF84FF07E51079002F086FA08906E48EA
:103C20000168089802F07CF9099001F0B5FFCDE930
:103C30000A01DDE90C2301F00BFACDE90E0101F0D8
:103C4000D5F965490860624801682B9802F068F967
:103C5000069061482D99006802F062F904905F486F
:103C60002C99006802F05CF90390049902F066FA5E
:103C70000590069901F0BCFF079001F08DFF514AB5
:103C8000514BCDE9080101F077FCCDE90C014FF073
:103C90008241109802F01AF84FF07E51079002F01E
:103CA00043FA08904B480168089802F039F90990E6
:103CB00001F072FFCDE90A01DDE90C2301F0C8F93A
:103CC000CDE90E0101F092F9424908600846016809
:103CD0002B9802F025F906903F482C99006802F0D5
:103CE0001FF904903D482D99006802F019F90390DE
:103CF000049901F07DFF0590069902F01FFA0790E4
:103D000001F04AFF2F4A304BCDE9080101F034FCA5
:103D1000CDE90C014FF08241109801F0D7FF4FF030
:103D20007E51079002F000FA08902948016808982F
:103D300002F0F6F8099001F02FFFCDE90A01DDE964
:103D40000C2301F085F9CDE90E0101F04FF920496E
:103D5000086008460168006802F0E2F80A901D4811
:103D60000168006802F0DCF808901B4801680068F0
:103D700002F0D6F8069019480168006802F0D0F801
:103D80000590069901F034FF0790089901F030FF83
:103D900009900A9901F02CFF0B9001F0FDFECDE98E
:103DA0000C0101F0FDF8CDE90E0101F01FF9299099
:103DB0000A482999006801F089FF084908600FE066
:103DC0006F12033BFCA9F1D24D62603F4D62703F20
:103DD000A4000020A00000209C00002098000020EB
:103DE0007E482999006801F071FF7C4908607C4891
:103DF0002999006801F06AFF794908607948299992
:103E0000006801F063FF77490860774801684FF068
:103E1000804002F085F8069071480168069802F02B
:103E20007FF808906D4801684FF0404002F078F844
:103E300006906C480168069802F072F8079008999D
:103E400001F0D6FE099001F0A7FECDE90A0100F0CD
:103E500095FD4FF06632654BCDE90C0101F08CFB0E
:103E6000CDE90E0101F0C2F8614948605C48016883
:103E70004FF0804002F054F80390594801680398CD
:103E800002F04EF80590554801684FF0404002F0AE
:103E900047F8039051480168039802F041F80490F4
:103EA000059902F04BF94FF07E51069001F0A0FE0B
:103EB000079001F071FECDE90A014B4801684FF00F
:103EC000804002F02DF8049044480168049802F004
:103ED00027F80690424801684FF0804002F020F831
:103EE000049040480168049802F01AF80590069979
:103EF00001F07EFE079001F04FFECDE90801DDE9FB
:103F00000A2300F08DFF4FF06632384BCDE90C01EB
:103F100001F032FBCDE90E0101F068F83449086088
:103F2000304801684FF0804001F0FAFF03902D48BF
:103F30000168039801F0F4FF0590294801684FF0EB
:103F4000404001F0EDFF039025480168039801F01F
:103F5000E7FF0490059902F0F1F84FF07E510690CA
:103F600001F046FE079001F017FECDE90A011E4858
:103F700001684FF0804001F0D3FF049019480168B8
:103F8000049801F0CDFF0690144801684FF080407E
:103F900001F0C6FF049012480168049801F0C0FFC8
:103FA0000590069901F024FE079001F0F5FDCDE99A
:103FB0000801DDE90A2300F033FF81F000414FF0F2
:103FC00066320A4BCDE90C0101F0D6FACDE90E01BB
:103FD00001F00CF8064988602FB000BD9C0000205D
:103FE000A0000020A40000209800002066A64C40FD
:103FF0009402002030B585B005460C46012104200E
:10400000FCF70AFF01210820FCF7F9FE4FF470705D
:10401000ADF8100028208DF8130004A9C648FCF75D
:104020003BFC4FF47071C448FCF7E3FCADF808505A
:10403000ADF804400020ADF80A00ADF8060001A973
:10404000BE48FDF71BF80020BD49088048800120CC
:1040500088800020C8800881B848FDF780FA0420D5
:10406000B749088000204880012088800020C8804F
:104070000881B248FDF773FA0820B1490880002092
:104080004880012088800020C8800881AB48FDF767
:1040900066FA0C20AA490880002048800120888008
:1040A0000020C8800881A548FDF759FA1E208DF828
:1040B000000000208DF8010001208DF80300684603
:1040C000FCF713FB01221E219C48FDF72CFB01216C
:1040D0009A48FDF702FB05B030BD10B5994800784D
:1040E00010F0800F45D102219448FDF7B6FD80B352
:1040F00002219248FDF7C2FD9248007810F0400F6F
:1041000028D08E48FDF78AFD8F4908800846008830
:104110008E490988884204DA4FF6FF708C4908609E
:1041200002E000208A49086087480088874909889A
:10413000401A8749096808448649086008460068AB
:104140008549086000207F49087000217B48FDF701
:1041500073FC0EE07948FDF761FD7C4908807948E1
:10416000007840F040007749087002217348FDF75D
:1041700063FC7A48007810F0800F45D104216F4825
:10418000FDF76BFD80B304216C48FDF777FD7348A4
:10419000007810F0400F28D06848FDF742FD7049C4
:1041A0000880084600886F490988884204DA4FF67B
:1041B000FF706D49086002E000206B4908606848A4
:1041C000008868490988401A6749096808446749AE
:1041D0000860084600686649086000205F4908706A
:1041E00000215648FDF73AFC0EE05448FDF719FD52
:1041F0005C4908805948007840F0400057490870F1
:1042000002214E48FDF72AFC5A48007810F0800F32
:1042100045D108214948FDF720FD80B308214748D2
:10422000FDF72CFD5348007810F0400F28D043488C
:10423000FDF7FAFC50490880084600884F49098874
:10424000884204DA4FF6FF704D49086002E0002012
:104250004B4908604848008848490988401A48493D
:1042600009680844474908600846006846490860EC
:1042700000204049087000213048FDF705FC0EE0A1
:104280002E48FDF7D1FC3D4908803A48007840F0BF
:1042900040003849087002212848FDF7F5FB3B48EB
:1042A000007810F0800F45D110212448FDF7D5FC8F
:1042B00080B310212148FDF7E1FC3448007810F06C
:1042C000400F28D01D48FDF7B2FC31490880084650
:1042D000008830490988884204DA4FF6FF702E4979
:1042E000086002E000202C4908602948008829491C
:1042F0000988401A2849096808442849086008467E
:1043000000682749086000202049087000210B48F8
:10431000FDF7D0FB0EE00948FDF789FC1D49088038
:104320001A48007840F040001849087002210348FC
:10433000FDF7C0FB10BD0000000C0140000800406C
:10434000A0020020C0000020D6000020D4000020E1
:10435000E4000020C4000020F4000020C100002080
:10436000DA000020D8000020E8000020C80000206B
:10437000F8000020C2000020DE000020DC00002049
:10438000EC000020CC000020FC000020C300002036
:10439000E2000020E0000020F0000020D00000201B
:1043A0000001002000220270002904DA4A4211B202
:1043B0002D22027001E0202202704FF47A7291FBEC
:1043C000F2F23032D3B2421C104613704FF47A72BC
:1043D00091FBF2F302FB131211B2642291FBF2F291
:1043E0003032D3B2421C10461370642291FBF2F3B8
:1043F00002FB131211B20A2291FBF2F23032D3B255
:10440000421C104613700A2291FBF2F302FB1312B6
:1044100011B201F13002D3B2421C10461370704742
:1044200010B500226B21D020FEF761FB0322192179
:10443000D020FEF75CFB02221A21D020FEF757FBAA
:1044400018221B21D020FEF752FB01221C21D02074
:10445000FEF74DFB10BD2DE9F0474421D020FEF7BB
:1044600067FB824908704321D020FEF761FB7F493A
:10447000487008460078497840EA012000B27C493B
:1044800008800846B0F9000001F023F806464FF016
:104490006632784B00F096FE044600F0EBFF00B267
:1044A000734908804621D020FEF742FB6F4988708F
:1044B0004521D020FEF73CFB6C49C8700846807847
:1044C000C97840EA012000B26B4908800846B0F97B
:1044D000000000F0FEFF06464FF06632654B00F02C
:1044E00071FE044600F0C6FF00B26349088048210F
:1044F000D020FEF71DFB5D4908714721D020FEF753
:1045000017FB5A49487108460079497940EA012069
:1045100000B25A4908800846B0F9000000F0D9FFFF
:1045200006464FF06632534B00F04CFE044600F056
:10453000A1FF00B2514908803C21D020FEF7F8FAD3
:104540004A4988713B21D020FEF7F2FA4749C871E9
:1045500008468079C97940EA012000B248490880BC
:104560000846B0F9000000F0B4FF0646454A464B45
:1045700000F028FE044600F07DFF00B240490880AC
:104580003E21D020FEF7D4FA384908723D21D020D0
:10459000FEF7CEFA354948720846007A497A40EA71
:1045A000012000B2394908800846B0F9000000F047
:1045B00090FF0646334A344B00F004FE044600F0F8
:1045C00059FF00B2314908804021D020FEF7B0FAEF
:1045D000264988723F21D020FEF7AAFA2349C872E3
:1045E0000846807AC97A40EA012000B2284908804A
:1045F0000846B0F9000000F06CFF0646214A224B45
:1046000000F0E0FD044600F035FF00B220490880CC
:104610004221D020FEF78CFA144908734121D020A2
:10462000FEF786FA114948730846007B497B40EA49
:10463000012000B2174908800846B0F9000043F293
:104640009031084400F045FF04460022124B00F070
:10465000B9FD06460022114B00F0FAFC804600F03E
:1046600009FF00B20B490880BDE8F087B4020020C2
:104670000401002066663040060100200801002089
:104680000A0100207B14AE47E17A64400C0100204F
:104690000E0100201001002000807140000014C0B5
:1046A000704700000FB4044910B503AA029800F047
:1046B00089F810BC5DF814FB740000202DE9F0416E
:1046C00004460E4600200AE0E1682046884738B3D9
:1046D000252806D0D4E901219047206A401C206299
:1046E000F2E7E168204600278847050018D0A5F1C9
:1046F0004100192802D820354FF400673246294678
:1047000020462760FBF74EFD40B1012804D0F61D7E
:1047100026F007060836D7E7361DD5E72846D9E73D
:10472000206ABDE8F08170B505460C46012A05D027
:104730002868800600D5EA69002302E0012305E02D
:104740005B1C934202D2E05C0028F9D1A869E6180C
:10475000C01AA861286A184428622846AFF300806E
:1047600004E0D5E9012114F8010B9047B442F8D3D5
:104770002846AFF3008070BD7047704770477047A0
:1047800010B500F031F8006810BD10B5044600F017
:104790002BF8046010BD10B5436913B1AFF300806E
:1047A00001E0FFF7C0FF012010BD126800F12401F5
:1047B0000A7000224A700122EDE711684FF0FF32C3
:1047C000E9E70000074B70B50C467B4400F017F892
:1047D0000546204600F026F810B14FF0FF3070BDBE
:1047E000284670BD89DFFFFF01487047704700BF52
:1047F000C402002001694A1C02610878704700B5B4
:104800008FB0CDE901310021059105497944CDE909
:10481000031011466846FFF751FF0FB000BD0000BE
:10482000E5FFFFFFC06800F0800070470048704758
:10483000C40200207546FFF7F9FFAE460500694641
:10484000534620F00700854618B020B5FBF744FE1C
:10485000BDE820404FF000064FF000074FF0000881
:104860004FF0000B21F00701AC46ACE8C009ACE802
:10487000C009ACE8C009ACE8C0098D4670470446E1
:10488000AFF300802046FBF7A1FC00000148704711
:10489000704700BFC8020020490050EAC12018BF7D
:1048A00004204A0D18BF40F0010040F2FF72B2EB45
:1048B000515F08BF40F00200012808BF0520704783
:1048C0002DE9F0414F1E00EBC7010446D1E900017C
:1048D00015461E4637F006020DD02A46334600F034
:1048E0004BFE7F1E04EBC703D3E9002300F0B0FBAF
:1048F00037F00602F1D1022F25D0042F13D0062F56
:1049000018BFBDE8F0812A46334600F035FED4E9F1
:104910000A2300F09DFB2A46334600F02DFED4E921
:10492000082300F095FB2A46334600F025FED4E923
:10493000062300F08DFB2A46334600F01DFED4E925
:10494000042300F085FB2A46334600F015FED4E927
:10495000022300F07DFB2A46334600F00DFED4E929
:104960000023BDE8F04100F073BB0000024A0020C4
:10497000110701F08ABC000001FDFFFF2DE9F04D99
:10498000914F21F0004A86B005460C46BA452FDB10
:10499000AAEB070028430BD08C48824501DC1BD1D1
:1049A000D5B106B02846BDE8F04D012201F06DBC3E
:1049B000874A884B284600F0DFFD07460E46864AA8
:1049C000864B2846214600F0D7FD06B03A463346CE
:1049D000BDE8F04D00F03CBB0120FFF7D6FE06B06D
:1049E0000022BDE8F04D13461046114600F0EABB28
:1049F0007B48824543DABAF1795F0BDA2846FFF744
:104A00004BFF042808BFFFF7B1FF284606B0214638
:104A1000BDE8F08D0B462A462846214600F0ACFD45
:104A2000834602466F480E460B4606217844FFF740
:104A300047FF5A46334600F09FFD80466A488A4643
:104A40005A46334604217844FFF73AFF5A46334624
:104A500000F092FD00223B4600F0FAFA02460B46B7
:104A60004046514600F0AEFB2A46234600F084FD46
:104A700006B02A462346BDE8F04D00F0E9BA2846C4
:104A800024F0004100223D463B4600F0A9FE4FF0D5
:104A9000FF3201F0FAFB0646024654480F460B4629
:104AA00006217844FFF70CFF32463B4600F064FDD8
:104AB000CDE900014E4832463B4604217844FFF7D9
:104AC000FFFE32463B4600F057FD00222B4600F029
:104AD000BFFA834602913046394600F061FA8046BB
:104AE00044480D46504517DCDDE900015A46029B5B
:104AF00000F068FB42462B4600F03EFD42462B4646
:104B000000F0A6FA012201F0C0FB314A314B00F05F
:104B100059FF314A314B4DE04FF0000A0B465246E7
:104B20004046294600F094FACDE9031052462B4640
:104B30005046294600F020FD32463B4600F050FE2C
:104B4000DDE9033200F03EFB06460F46DDE90001D9
:104B50005A46029B00F036FB834600910122304604
:104B6000394601F092FB1A4A1A4B00F039FE06460C
:104B70000F4601224046294601F087FB5A46009B1A
:104B800000F0FAFC32463B4600F01CFF07460E469A
:104B900001225046294601F078FB0F4DDFF858807E
:104BA0002A46434600F01CFE3A46334600F018FE03
:104BB0002A46434600F014FE002CD8BF81F0004185
:104BC00006B0BDE8F08D00000000F03F0000F07F6F
:104BD000075C143326A6913C182D4454FB21F93F61
:104BE0000000E03FF0180000061900007A180000ED
:104BF000901800003333EF3FFB21E93F2DE9F84FD8
:104C000004460D4621F0004000917449884212DBB1
:104C10007349884201DC07D134B120462946BDE8FA
:104C2000F84F012201F031BB6E48002DCCBF6E4918
:104C30006E49BDE8F88F6E49884211DA6D498842A5
:104C4000A8BF4FF0FF366DDA20462946FFF724FE55
:104C5000042808BFFFF78AFE20462946BDE8F88FE2
:104C60006549DFF898A125F00045884232DA6449A9
:104C7000884219DA002632464FF080432046294602
:104C800000F0E6F90746884601222046294601F051
:104C9000FCFA0022534600F095FE3A46434600F0E7
:104CA00091FA04460D463DE0012600225346204677
:104CB000294600F0CDF90746884600225346204693
:104CC000294600F07FFE43463A4600F07BFA044650
:104CD0000D4627E04B4988421BDADFF82C8102267B
:104CE000002243462046294600F046FC0022534657
:104CF00000F0AEF982460F46002243462046294680
:104D000000F060FE52463B4600F05CFA04460D4659
:104D100008E0032622462B4600203C4900F052FAC8
:104D200004460D4622462B462046294600F024FC28
:104D30008B46824602460B4600F01EFC07460246A2
:104D4000334888460B4606217844FFF7B9FD5246A2
:104D50005B4600F011FC82462E488B463A4643469D
:104D600005217844FFF7ACFD3A46434600F004FCC9
:104D700002460B46002E504659460CDA00F068F900
:104D800022462B4600F0F8FB01B022462B46BDE838
:104D9000F04F00F025BD00F05BF922462B4600F0F5
:104DA000EBFB1D4A7A4402EBC603D3E9002300F073
:104DB00009FE22462B4600F005FE184A7A4402EB13
:104DC000C603D3E9002300F00BFD009A002AB4BF0C
:104DD00081F00041BDE8F88FBDE8F88F0000104475
:104DE0000000F07F182D4454FB21F93FFB21F9BF4F
:104DF0000000DC3F0000203E0000F33F0000F03FD9
:104E00000000E63F008003400000F83F0000F0BFD4
:104E10008C1600004A160000E8150000B0150000CE
:104E20002DE9F04D9446CCF1000423F000464CEA05
:104E30000404524F46EAD47498468A4621F0004250
:104E4000BC4206D8454240EA050442EAD474BC425A
:104E500004D9BDE8F04D624600F0FAB8A8F140551B
:104E6000A5F17F6555EA0C040BD0022404EAA8746E
:104E7000434DDFF810E144EADA7452EA000B04D043
:104E80000CE0BDE8F04DFFF7B9BE002C14BF012CBB
:104E9000BDE8F08D022C30D0032C32D056EA0C0B3A
:104EA0000AD0BE4220D1BA4209D126F0804622F073
:104EB00080423346114617E000291ADB25E0DFF86F
:104EC000C8B0FB44002C04BFDBE90001BDE8F08D55
:104ED000012C02BFDBE9000181F00041BDE8F08D4B
:104EE000022C0AD0032C0CD0BA4212D1BAF1000F16
:104EF0000BDA23482549BDE8F08D28462449BDE852
:104F0000F08D28467146BDE8F08D1D482149BDE869
:104F1000F08D921B12153C2AC4BF19481D490EDCA6
:104F2000B8F1000FBEBF12F13C0F0020014606DBB6
:104F3000624600F047F921F00041FFF75FFE002CC8
:104F400008BFBDE8F08D012C04BF81F00041BDE831
:104F5000F08D114A114B022C07D000F033FD2A4688
:104F6000BDE8F04D0A4B00F02DBD00F02BFD2A46A8
:104F7000BDE8F04D064B00F033BC00000000F07FB0
:104F8000182D4454FB2109C042150000FB21F9BF34
:104F9000FB210940FB21F93F075C143326A6A13C05
:104FA0002DE9F04106460F4600F026FC04000D46B0
:104FB00018BF0120284320F00040C0F17F6010F1AD
:104FC000E0400ED5002E14BF01200020384320F011
:104FD0000040C0F17F6010F1E0405CBF0120FFF7AE
:104FE000D4FB20462946BDE8F081000021F00042B4
:104FF000A2F16052B2F5801F01F0004328BFD2F148
:105000007F6C0BD95FEA001C43EAC20242EB50708E
:1050100018BF704728BF20F001007047B2F5801F0D
:10502000BCBF184670474FEA410C1CF5001F02D266
:10503000084601F043B870B500F048FB0000008955
:10504000FFF7F6BF4FF00040A0F58000704700006A
:1050500010B591EA030F48BF83F0004300F1BA8412
:10506000841A71EB030E05D2121943EB0E03001BD9
:1050700061EB0E01DFF820C14FEA1154A4EB135E7F
:105080001CEA430F18BF9CEA445F71D023EA0C036B
:10509000DEF1200C21EA045143F4801332D322FACA
:1050A0000EFC10EB0C0023FA0EFC41EB0C01CEF1D0
:1050B000200C03FA0CFC10EB0C0051F10001B1F5CF
:1050C000801FCEF1200C32D201EB0451BDE810401C
:1050D00012FA0CF258BF7047401C38BF5FEA420218
:1050E00018BF7047002814BF20F0010041F10001F3
:1050F0004FEA410313F5001F38BF7047A1F1C041CB
:1051000000F032BB012A43EB0302AEF1200EDEF1C8
:105110001F0C32BF4FF0000C23FA0EF310EB03000C
:1051200041EB0451B4EB115FD0D0A1EB045101F578
:105130008011490801EB0451BDE810405FEA3000DE
:105140000CD350F1000038BF12FA0CFC06D1C9E7AD
:10515000401C38BF5FEA4202CAD1C3E74FEA4103AD
:1051600013F5001F38BF7047A1F1C04100F0FCBA31
:105170009CEA445F08D0BDE8104011EA5C0F04BF10
:1051800001F0004100207047BDE8104070B500F00C
:105190009DFA00BF64FBBE3E0000E0FF02494FF0F5
:1051A000000001F040B800BF0000F87F491058BF70
:1051B000C1F140415B1058BFC3F140438B42EFF354
:1051C000008070472DE9C04130B4DFF8A0C23CEA4E
:1051D000111418BF3CEA131400F0EC8081EA0305B7
:1051E0001CEA111444EAD57418BF1CEA131500F028
:1051F000C780A4EB05044FF0004545EAC12145EA0C
:10520000C32341EA505143EA525304F17F74994257
:1052100004F500344FEAC0204FEAC22208BF904292
:1052200000F09C804FEA13650FF24016765D4FEA5E
:10523000134506FB05F7C7F1807706FB07F74FEA32
:10524000D737A7FB03687642C8F58038A7FB06CEA0
:1052500038BFA8F1010807FB08E64FF0000EA6FBD7
:10526000028CE6FB03CEDCF1000CCEF1004E38BF21
:10527000AEF1010EA6FB0C584FF000074FF00005F1
:10528000E6FB0E87A1FB08C6A0FB07CE16EB0E06B9
:1052900045F10005E1FB076515F1E04E7EBFA4F581
:1052A00080345FEA46066D4116F1800745F100053E
:1052B0004FEA17274FEA066647EA0567A6F1DE467A
:1052C000B6F1805F4FEA15251FD9384624F0010C4E
:1052D00005EBC471BCF1FE6F01EB0C1102D8F0BC00
:1052E000BDE8008124425CBF01F5801E9EEAC47FB8
:1052F00002D4F0BCBDE80081244238D4F0BCA1F156
:10530000C041BDE8004100F02FBA4FEAD22242EA84
:1053100043524FEAD323A7FB02864FEAD02040EA4C
:10532000415007FB03661EEA0E0F4FEAD12105FB31
:10533000026658BFA6EB0056B6EB00564FEA520E77
:105340004EEAC37E18EB0E0E56EB530EBDD518EB8E
:1053500002085E417F1C55F10005B6E74FF4801549
:105360004FF000074FF000064FF00008ADE7F0BC2B
:105370004FF0000001F1C04101F00041BDE80081A3
:1053800011EA0C1F0CEA131500D00CE013EA0C1FF5
:1053900000F025804FF00000F0BC81EA030101F02D
:1053A0000041BDE80081F0BCBDE8004181EA030195
:1053B00000F0DAB9F0BCBDE8004170B500F086F944
:1053C000097EFC3E00F007B881EA03014FF00000BF
:1053D00001F00041704781EA030100F0C5B9F0BC5B
:1053E000BDE800414FF0000021497047FFFDFBF987
:1053F000F7F5F4F2F0EEEDEBE9E8E6E4E3E1E0DE08
:10540000DDDBDAD8D7D5D4D3D1D0CFCDCCCBCAC879
:10541000C7C6C5C4C2C1C0BFBEBDBCBBBAB9B8B7A0
:10542000B6B5B4B3B2B1B0AFAEADACABAAA9A8A893
:10543000A7A6A5A4A3A3A2A1A09F9F9E9D9C9C9B61
:105440009A9999989797969595949393929191900C
:105450008F8F8E8E8D8C8C8B8B8A8989888887879D
:105460008685858484838382828181800000FF0712
:105470000000F87F4FEA41034FEA5353A3F58063DE
:10548000D3F11E03C8BFD3F1210C0CDD4FF0004255
:1054900042EAC12242EA505232FA03FC8CEAE17C31
:1054A000ACEBE1707047102BC4BF0020704703F5D0
:1054B000787CBCF1FF3F04D06FF0004282EA21000B
:1054C000704770B500F002F94992248000207047BF
:1054D000F2E710F0004248BF4042B0FA80F310FA01
:1054E00003F10AD0C3F11D0303F580634FEA415075
:1054F00002EB035202EBD12170474FF000007047DE
:1055000051EA030C17D41CF5801F58BFBCF5801F4F
:1055100000F10680994218BF704708BF904270475B
:1055200007D711F5801F58BF13F5801F19D4994272
:105530007047894270471CF5801F08D5BCF5801F55
:10554000F7D58B4218BF704708BF824270474FF4AF
:10555000001C1CEB410F38BF1CEB430F01D28B42E8
:10556000704770B500F0B2F8922449004FF0005136
:105570004FF08053FFF71ABEDFF848C170B51CEA40
:10558000111E1EBF1CEA13159EEA0C0F95EA0C0FA4
:1055900000F06F8081EA030423EA4C134EEAD47EC4
:1055A00021EA4C1141F4801143F48013AE44A1FB75
:1055B000024CA0FB0365AEF17F7E361955EB0C055E
:1055C000A1FB034C4CF10003A0FB021C16EB0C06E4
:1055D000654153F10003094218BF46F0010613F478
:1055E000007F0BD14FEA03314FEA0530340341EA23
:1055F000155140EA16506FF003020AE04FEAC3214A
:105600004FEAC520F40241EA555140EA56506FF086
:10561000020202EB2E4201EB025585EACE710AD05E
:105620005FEA440C18BF24F0004450F1000041F13F
:10563000000120EAD47040F2FE7C624500D270BDC9
:10564000A84214BF4FF080444FF04044002E08BFE2
:105650000024BEF1806FA8BFA1F1C041BDE8704039
:1056600080F282804FF0000001F1C04101F0004162
:1056700070479EEA0C0F0CEA131518BF95EA0C0F41
:1056800006D04FF0000081EA030E0EF0004170BD1D
:1056900000F01CF88900013E00F007B800F009B8DE
:1056A0004FEA430C5FEA5C5C08D081EA030100F03A
:1056B0005BB84FEA410C5FEA5C5CF6D14FF000004A
:1056C000014970470000FF070000F87F0EF1020E4D
:1056D0002EF0030E5EF8046B364205D4012A43EB2C
:1056E000030515F5001F12D8012841EB010C1CF52C
:1056F000001F0CD80ED14FEAD17C15F5001F0CEB22
:105700004C0C0CF1020C08BF4CEBD37C04E04FF0C6
:10571000080C01E04FEAD37C0CEB4C0526FA05F6A9
:1057200006F00706B6F1040C06D20EEB860CBDE8B7
:1057300070404CF0010C6047DFE80CF0090B0202EE
:105740004FF000414FF00000A1F5002170BD194657
:105750001046012851EB010418BFD4F5001484BF92
:10576000002001F0004170BD0808A0F500114FEACB
:105770003101704753EA010C17D41CF5801F58BF44
:10578000BCF5801F00F106808B4218BF704708BF30
:105790008242704707D713F5801F58BF11F5801F4D
:1057A00019D48B4270479B4270471CF5801F08D567
:1057B000BCF5801FF7D5994218BF704708BF9042CB
:1057C00070474FF4001C1CEB430F38BF1CEB410F1C
:1057D00001D2994270470FB40CBC03BCFFF7C1BEA5
:1057E00091EA030F10B581F000413FF539AC83F029
:1057F000004300F0EFB800002DE9F04101F5801CF6
:10580000BCF5001FC0F2C3804FEA115C21EA0C51C5
:105810000CF1FD0C41F480115FEA5C0C0CF5C07CCE
:1058200001D3400049413DA4890241EA90518702D9
:105830008E0E0A0CA45D04FB04F602FB06F6C6F10C
:105840004046A4FB0662F60D46EA422606FB06F435
:10585000A4FB01235242C3F1404338BF5B1EA6FBA9
:1058600002420024E6FB0324D20B42EA4446A6FB94
:105870000623A1FB02E2A3FB07E4A4184FF00002F9
:1058800052F10002E3FB01426442C2F1404E38BFD4
:10589000AEF1010EA6FB04234FF00002E6FB0E3230
:1058A000A2FB03464FF00004B61954F10004E2FBDA
:1058B0000264A1FB06E6A4FB07E816EB08064FF01E
:1058C000000858F10008E4FB01687642C8F140582E
:1058D00038BFA8F10108A2FB06E4A3FB08E52D19D7
:1058E0004FF0000454F10004E2FB0854A1FB05E66C
:1058F000A7FB04E818EB06084FF0000656F1000677
:10590000E1FB048618F1200556F10006A809A8F16C
:105910001B08B10908F03F08B8F10A0F40EA866099
:105920001CD901EB0C51BDE8F08100BFFCF5EEE89D
:10593000E2DDD8D3CFCBC7C3C0BDB9B6B4B1AEAC2E
:10594000A9A7A5A3A19F9D9B9A9896959392908FA6
:105950008D8C8B898887868584838281A0FB0068F3
:1059600000FB01F208EB4208B8EB872807D5341892
:1059700058EB0104D5D5401C51F10001D1E7341A90
:1059800078EB0104CDD4401E71F10001C9E75FEA54
:105990004C0C5FEA9C5C0DD105D34FF0000001F088
:1059A0000041BDE8F081BDE8F04170B5FFF78EFE23
:1059B0006DDBFFBEBDE8F0414FF0000000497047CD
:1059C0000000F87F10B591EA030F48BF83F0004351
:1059D0003FF546AB841A71EB030E07D212198EF015
:1059E000004E43EB0E03001B61EB0E01DFF8A4C178
:1059F0004FEA1154A4EB135E1CEA430F18BF9CEA54
:105A0000445F00F0B08023EA6C03524221EA045163
:105A1000C3EB6C0338BF5B1EDEF1200C25D322FAEA
:105A20000EFC10EB0C0043FA0EFC41EB0C01CEF126
:105A3000200C03FA0CFC10EB0C0051F10001CEF12C
:105A4000200C29D401EB0451BDE8104012FA0CF2ED
:105A500058BF7047401C1CBFB2F1004F7047002870
:105A60000CBF491C20F00100704712EB020C43EB05
:105A7000030218BF4FF0010C4CEA4202AEF1200EB7
:105A8000DEF11E0C54D943FA0EFC10EB0C0051F160
:105A9000FF31CEF11E0CD5D50CF1010C12FA0CFC25
:105AA000404141EB010101EB445E5FEA5E5E10D9CB
:105AB00001EB0451BDE8104010EBDC7038BFBCF1C5
:105AC000004F18BF704700280CBF491C20F0010090
:105AD000704730D24FEAD42E11F5001124F400643F
